S012000052696E676275666665722E7372656308
S11300000C943E000C945B000C945B000C945B001D
S11300100C945B000C945B000C945B000C945B00F0
S11300200C945B000C945B000C945B000C945B00E0
S11300300C945B000C945B000C945B000C945B00D0
S11300400C945B000C945B000C945B000C945B00C0
S11300500C945B000C945B000C945B000C945B00B0
S11300600C945B000C945B000C945B000C945B00A0
S11300700C945B000C945B000C945B0011241FBE79
S1130080CFEFD0E1DEBFCDBF11E0A0E0B1E0E2E808
S1130090F1E002C005900D92AE30B107D9F721E02E
S11300A0AEE0B1E001C01D92A132B207E1F70E94B7
S11300B05D000C94BF000C94000087E690E00E9461
S11300C0B2000E9472006CE080E091E00E94770030
S11300D02FEF81EE94E0215080409040E1F700C082
S11300E00000F1CF10920E0110922001089540916A
S11300F00E0120912001421740F050E0421B5109AB
S113010020E130E0241B350B05C030E0241B31090D
S113011021503109462F50E0241735070CF11416ED
S11301201506BCF4DC01AC01460F511D90910E0183
S11301302D91E92FF0E0E15FFE4F20839F5F913125
S113014018F490930E0102C010920E01A417B50783
S113015069F7E1ECF0E080818062808381E00895BA
S113016080E0089599279093C5008093C40088E1A6
S11301708093C10086E08093C20078940895F89437
S1050180FFCFAB
S111018248656C6C6F20576F726C642100002E
S9030000FC
